{
  "_format": "hh-sol-artifact-1",
  "contractName": "ScreamChicken",
  "sourceName": "contracts/MyNFT.sol",
  "abi": [
    {
      "inputs": [],
      "stateMutability": "nonpayable",
      "type": "constructor"
    },
    {
      "anonymous": false,
      "inputs": [
        {
          "indexed": true,
          "internalType": "address",
          "name": "owner",
          "type": "address"
        },
        {
          "indexed": true,
          "internalType": "address",
          "name": "approved",
          "type": "address"
        },
        {
          "indexed": true,
          "internalType": "uint256",
          "name": "tokenId",
          "type": "uint256"
        }
      ],
      "name": "Approval",
      "type": "event"
    },
    {
      "anonymous": false,
      "inputs": [
        {
          "indexed": true,
          "internalType": "address",
          "name": "owner",
          "type": "address"
        },
        {
          "indexed": true,
          "internalType": "address",
          "name": "operator",
          "type": "address"
        },
        {
          "indexed": false,
          "internalType": "bool",
          "name": "approved",
          "type": "bool"
        }
      ],
      "name": "ApprovalForAll",
      "type": "event"
    },
    {
      "anonymous": false,
      "inputs": [
        {
          "indexed": false,
          "internalType": "uint256",
          "name": "tokenId",
          "type": "uint256"
        },
        {
          "indexed": false,
          "internalType": "address",
          "name": "recipient",
          "type": "address"
        },
        {
          "indexed": false,
          "internalType": "string",
          "name": "metadataURI",
          "type": "string"
        }
      ],
      "name": "Minting",
      "type": "event"
    },
    {
      "anonymous": false,
      "inputs": [
        {
          "indexed": true,
          "internalType": "address",
          "name": "previousOwner",
          "type": "address"
        },
        {
          "indexed": true,
          "internalType": "address",
          "name": "newOwner",
          "type": "address"
        }
      ],
      "name": "OwnershipTransferred",
      "type": "event"
    },
    {
      "anonymous": false,
      "inputs": [
        {
          "indexed": false,
          "internalType": "uint256",
          "name": "tokenId",
          "type": "uint256"
        },
        {
          "indexed": false,
          "internalType": "uint256",
          "name": "price",
          "type": "uint256"
        }
      ],
      "name": "TokenListedForSale",
      "type": "event"
    },
    {
      "anonymous": false,
      "inputs": [
        {
          "indexed": false,
          "internalType": "uint256",
          "name": "tokenId",
          "type": "uint256"
        }
      ],
      "name": "TokenListingCanceled",
      "type": "event"
    },
    {
      "anonymous": false,
      "inputs": [
        {
          "indexed": false,
          "internalType": "uint256",
          "name": "tokenId",
          "type": "uint256"
        },
        {
          "indexed": false,
          "internalType": "address",
          "name": "buyer",
          "type": "address"
        },
        {
          "indexed": false,
          "internalType": "uint256",
          "name": "price",
          "type": "uint256"
        }
      ],
      "name": "TokenSold",
      "type": "event"
    },
    {
      "anonymous": false,
      "inputs": [
        {
          "indexed": true,
          "internalType": "address",
          "name": "from",
          "type": "address"
        },
        {
          "indexed": true,
          "internalType": "address",
          "name": "to",
          "type": "address"
        },
        {
          "indexed": true,
          "internalType": "uint256",
          "name": "tokenId",
          "type": "uint256"
        }
      ],
      "name": "Transfer",
      "type": "event"
    },
    {
      "inputs": [
        {
          "internalType": "address",
          "name": "to",
          "type": "address"
        },
        {
          "internalType": "uint256",
          "name": "tokenId",
          "type": "uint256"
        }
      ],
      "name": "approve",
      "outputs": [],
      "stateMutability": "nonpayable",
      "type": "function"
    },
    {
      "inputs": [
        {
          "internalType": "address",
          "name": "owner",
          "type": "address"
        }
      ],
      "name": "balanceOf",
      "outputs": [
        {
          "internalType": "uint256",
          "name": "",
          "type": "uint256"
        }
      ],
      "stateMutability": "view",
      "type": "function"
    },
    {
      "inputs": [
        {
          "internalType": "uint256",
          "name": "tokenId",
          "type": "uint256"
        }
      ],
      "name": "burnToken",
      "outputs": [],
      "stateMutability": "nonpayable",
      "type": "function"
    },
    {
      "inputs": [
        {
          "internalType": "uint256",
          "name": "tokenId",
          "type": "uint256"
        }
      ],
      "name": "buy",
      "outputs": [],
      "stateMutability": "payable",
      "type": "function"
    },
    {
      "inputs": [
        {
          "internalType": "uint256",
          "name": "tokenId",
          "type": "uint256"
        }
      ],
      "name": "cancelListing",
      "outputs": [],
      "stateMutability": "nonpayable",
      "type": "function"
    },
    {
      "inputs": [],
      "name": "count",
      "outputs": [
        {
          "internalType": "uint256",
          "name": "",
          "type": "uint256"
        }
      ],
      "stateMutability": "view",
      "type": "function"
    },
    {
      "inputs": [
        {
          "internalType": "uint256",
          "name": "tokenId",
          "type": "uint256"
        }
      ],
      "name": "getApproved",
      "outputs": [
        {
          "internalType": "address",
          "name": "",
          "type": "address"
        }
      ],
      "stateMutability": "view",
      "type": "function"
    },
    {
      "inputs": [
        {
          "internalType": "uint256",
          "name": "tokenId",
          "type": "uint256"
        }
      ],
      "name": "getOwnerOfToken",
      "outputs": [
        {
          "internalType": "address",
          "name": "",
          "type": "address"
        }
      ],
      "stateMutability": "view",
      "type": "function"
    },
    {
      "inputs": [
        {
          "internalType": "address",
          "name": "owner",
          "type": "address"
        },
        {
          "internalType": "address",
          "name": "operator",
          "type": "address"
        }
      ],
      "name": "isApprovedForAll",
      "outputs": [
        {
          "internalType": "bool",
          "name": "",
          "type": "bool"
        }
      ],
      "stateMutability": "view",
      "type": "function"
    },
    {
      "inputs": [
        {
          "internalType": "string",
          "name": "uri",
          "type": "string"
        }
      ],
      "name": "isContentOwned",
      "outputs": [
        {
          "internalType": "bool",
          "name": "",
          "type": "bool"
        }
      ],
      "stateMutability": "view",
      "type": "function"
    },
    {
      "inputs": [
        {
          "internalType": "uint256",
          "name": "tokenId",
          "type": "uint256"
        }
      ],
      "name": "isTokenBurned",
      "outputs": [
        {
          "internalType": "bool",
          "name": "",
          "type": "bool"
        }
      ],
      "stateMutability": "view",
      "type": "function"
    },
    {
      "inputs": [
        {
          "internalType": "uint256",
          "name": "",
          "type": "uint256"
        }
      ],
      "name": "listedForSale",
      "outputs": [
        {
          "internalType": "bool",
          "name": "",
          "type": "bool"
        }
      ],
      "stateMutability": "view",
      "type": "function"
    },
    {
      "inputs": [],
      "name": "name",
      "outputs": [
        {
          "internalType": "string",
          "name": "",
          "type": "string"
        }
      ],
      "stateMutability": "view",
      "type": "function"
    },
    {
      "inputs": [],
      "name": "owner",
      "outputs": [
        {
          "internalType": "address",
          "name": "",
          "type": "address"
        }
      ],
      "stateMutability": "view",
      "type": "function"
    },
    {
      "inputs": [
        {
          "internalType": "uint256",
          "name": "tokenId",
          "type": "uint256"
        }
      ],
      "name": "ownerOf",
      "outputs": [
        {
          "internalType": "address",
          "name": "",
          "type": "address"
        }
      ],
      "stateMutability": "view",
      "type": "function"
    },
    {
      "inputs": [
        {
          "internalType": "address",
          "name": "recipient",
          "type": "address"
        },
        {
          "internalType": "string",
          "name": "metadataURI",
          "type": "string"
        }
      ],
      "name": "payToMint",
      "outputs": [
        {
          "internalType": "uint256",
          "name": "",
          "type": "uint256"
        }
      ],
      "stateMutability": "payable",
      "type": "function"
    },
    {
      "inputs": [],
      "name": "renounceOwnership",
      "outputs": [],
      "stateMutability": "nonpayable",
      "type": "function"
    },
    {
      "inputs": [
        {
          "internalType": "address",
          "name": "to",
          "type": "address"
        },
        {
          "internalType": "string",
          "name": "uri",
          "type": "string"
        }
      ],
      "name": "safeMint",
      "outputs": [],
      "stateMutability": "nonpayable",
      "type": "function"
    },
    {
      "inputs": [
        {
          "internalType": "address",
          "name": "from",
          "type": "address"
        },
        {
          "internalType": "address",
          "name": "to",
          "type": "address"
        },
        {
          "internalType": "uint256",
          "name": "tokenId",
          "type": "uint256"
        }
      ],
      "name": "safeTransferFrom",
      "outputs": [],
      "stateMutability": "nonpayable",
      "type": "function"
    },
    {
      "inputs": [
        {
          "internalType": "address",
          "name": "from",
          "type": "address"
        },
        {
          "internalType": "address",
          "name": "to",
          "type": "address"
        },
        {
          "internalType": "uint256",
          "name": "tokenId",
          "type": "uint256"
        },
        {
          "internalType": "bytes",
          "name": "_data",
          "type": "bytes"
        }
      ],
      "name": "safeTransferFrom",
      "outputs": [],
      "stateMutability": "nonpayable",
      "type": "function"
    },
    {
      "inputs": [
        {
          "internalType": "uint256",
          "name": "tokenId",
          "type": "uint256"
        },
        {
          "internalType": "uint256",
          "name": "price",
          "type": "uint256"
        }
      ],
      "name": "sell",
      "outputs": [],
      "stateMutability": "nonpayable",
      "type": "function"
    },
    {
      "inputs": [
        {
          "internalType": "address",
          "name": "operator",
          "type": "address"
        },
        {
          "internalType": "bool",
          "name": "approved",
          "type": "bool"
        }
      ],
      "name": "setApprovalForAll",
      "outputs": [],
      "stateMutability": "nonpayable",
      "type": "function"
    },
    {
      "inputs": [
        {
          "internalType": "bytes4",
          "name": "interfaceId",
          "type": "bytes4"
        }
      ],
      "name": "supportsInterface",
      "outputs": [
        {
          "internalType": "bool",
          "name": "",
          "type": "bool"
        }
      ],
      "stateMutability": "view",
      "type": "function"
    },
    {
      "inputs": [],
      "name": "symbol",
      "outputs": [
        {
          "internalType": "string",
          "name": "",
          "type": "string"
        }
      ],
      "stateMutability": "view",
      "type": "function"
    },
    {
      "inputs": [
        {
          "internalType": "uint256",
          "name": "",
          "type": "uint256"
        }
      ],
      "name": "tokenPrices",
      "outputs": [
        {
          "internalType": "uint256",
          "name": "",
          "type": "uint256"
        }
      ],
      "stateMutability": "view",
      "type": "function"
    },
    {
      "inputs": [
        {
          "internalType": "uint256",
          "name": "tokenId",
          "type": "uint256"
        }
      ],
      "name": "tokenURI",
      "outputs": [
        {
          "internalType": "string",
          "name": "",
          "type": "string"
        }
      ],
      "stateMutability": "view",
      "type": "function"
    },
    {
      "inputs": [
        {
          "internalType": "address",
          "name": "from",
          "type": "address"
        },
        {
          "internalType": "address",
          "name": "to",
          "type": "address"
        },
        {
          "internalType": "uint256",
          "name": "tokenId",
          "type": "uint256"
        }
      ],
      "name": "transferFrom",
      "outputs": [],
      "stateMutability": "nonpayable",
      "type": "function"
    },
    {
      "inputs": [
        {
          "internalType": "address",
          "name": "newOwner",
          "type": "address"
        }
      ],
      "name": "transferOwnership",
      "outputs": [],
      "stateMutability": "nonpayable",
      "type": "function"
    }
  ],
  "bytecode": "0x60806040523480156200001157600080fd5b506040518060400160405280600d81526020017f53637265616d436869636b656e000000000000000000000000000000000000008152506040518060400160405280600381526020017f5343430000000000000000000000000000000000000000000000000000000000815250816000908051906020019062000096929190620001a6565b508060019080519060200190620000af929190620001a6565b505050620000d2620000c6620000d860201b60201c565b620000e060201b60201c565b620002bb565b600033905090565b6000600760009054906101000a900473ffffffffffffffffffffffffffffffffffffffff16905081600760006101000a81548173ffffffffffffffffffffffffffffffffffffffff021916908373ffffffffffffffffffffffffffffffffffffffff1602179055508173ffffffffffffffffffffffffffffffffffffffff168173ffffffffffffffffffffffffffffffffffffffff167f8be0079c531659141344cd1fd0a4f28419497f9722a3daafe3b4186f6b6457e060405160405180910390a35050565b828054620001b49062000256565b90600052602060002090601f016020900481019282620001d8576000855562000224565b82601f10620001f357805160ff191683800117855562000224565b8280016001018555821562000224579182015b828111156200022357825182559160200191906001019062000206565b5b50905062000233919062000237565b5090565b5b808211156200025257600081600090555060010162000238565b5090565b600060028204905060018216806200026f57607f821691505b602082108114156200028657620002856200028c565b5b50919050565b7f4e487b7100000000000000000000000000000000000000000000000000000000600052602260045260246000fd5b613fd780620002cb6000396000f3fe6080604052600436106101b75760003560e01c80637b47ec1a116100ec578063c87b56dd1161008a578063d96a094a11610064578063d96a094a14610645578063e5afe3e614610661578063e985e9c51461069e578063f2fde38b146106db576101b7565b8063c87b56dd146105b6578063d204c45e146105f3578063d79875eb1461061c576101b7565b806395d89b41116100c657806395d89b41146104fc5780639f1cabc614610527578063a22cb46514610564578063b88d4fde1461058d576101b7565b80637b47ec1a1461046b5780637f1dd80b146104945780638da5cb5b146104d1576101b7565b80633a87d45411610159578063615fd9e211610133578063615fd9e2146103aa5780636352211e146103da57806370a0823114610417578063715018a614610454576101b7565b80633a87d4541461030757806342842e0e1461034457806354c048731461036d576101b7565b8063081812fc11610195578063081812fc1461024f578063095ea7b31461028c57806323b872dd146102b5578063305a67a8146102de576101b7565b806301ffc9a7146101bc57806306661abd146101f957806306fdde0314610224575b600080fd5b3480156101c857600080fd5b506101e360048036038101906101de9190612bf2565b610704565b6040516101f091906131a4565b60405180910390f35b34801561020557600080fd5b5061020e6107e6565b60405161021b91906134e1565b60405180910390f35b34801561023057600080fd5b506102396107f7565b60405161024691906131bf565b60405180910390f35b34801561025b57600080fd5b5061027660048036038101906102719190612c85565b610889565b604051610283919061313d565b60405180910390f35b34801561029857600080fd5b506102b360048036038101906102ae9190612bb6565b61090e565b005b3480156102c157600080fd5b506102dc60048036038101906102d79190612a5c565b610a26565b005b3480156102ea57600080fd5b5061030560048036038101906103009190612c85565b610a86565b005b34801561031357600080fd5b5061032e60048036038101906103299190612c85565b610bb3565b60405161033b91906131a4565b60405180910390f35b34801561035057600080fd5b5061036b60048036038101906103669190612a5c565b610bc5565b005b34801561037957600080fd5b50610394600480360381019061038f9190612c85565b610be5565b6040516103a191906131a4565b60405180910390f35b6103c460048036038101906103bf9190612b62565b610c05565b6040516103d191906134e1565b60405180910390f35b3480156103e657600080fd5b5061040160048036038101906103fc9190612c85565b610d6c565b60405161040e919061313d565b60405180910390f35b34801561042357600080fd5b5061043e600480360381019061043991906129f7565b610dee565b60405161044b91906134e1565b60405180910390f35b34801561046057600080fd5b50610469610ea6565b005b34801561047757600080fd5b50610492600480360381019061048d9190612c85565b610f2e565b005b3480156104a057600080fd5b506104bb60048036038101906104b69190612c85565b610f8a565b6040516104c8919061313d565b60405180910390f35b3480156104dd57600080fd5b506104e6610f9c565b6040516104f3919061313d565b60405180910390f35b34801561050857600080fd5b50610511610fc6565b60405161051e91906131bf565b60405180910390f35b34801561053357600080fd5b5061054e60048036038101906105499190612c44565b611058565b60405161055b91906131a4565b60405180910390f35b34801561057057600080fd5b5061058b60048036038101906105869190612b26565b611093565b005b34801561059957600080fd5b506105b460048036038101906105af9190612aab565b6110a9565b005b3480156105c257600080fd5b506105dd60048036038101906105d89190612c85565b61110b565b6040516105ea91906131bf565b60405180910390f35b3480156105ff57600080fd5b5061061a60048036038101906106159190612b62565b61111d565b005b34801561062857600080fd5b50610643600480360381019061063e9190612cae565b611202565b005b61065f600480360381019061065a9190612c85565b611316565b005b34801561066d57600080fd5b5061068860048036038101906106839190612c85565b6114b3565b60405161069591906134e1565b60405180910390f35b3480156106aa57600080fd5b506106c560048036038101906106c09190612a20565b6114cb565b6040516106d291906131a4565b60405180910390f35b3480156106e757600080fd5b5061070260048036038101906106fd91906129f7565b61155f565b005b60007f80ac58cd000000000000000000000000000000000000000000000000000000007bffffffffffffffffffffffffffffffffffffffffffffffffffffffff1916827bffffffffffffffffffffffffffffffffffffffffffffffffffffffff191614806107cf57507f5b5e139f000000000000000000000000000000000000000000000000000000007bffffffffffffffffffffffffffffffffffffffffffffffffffffffff1916827bffffffffffffffffffffffffffffffffffffffffffffffffffffffff1916145b806107df57506107de82611657565b5b9050919050565b60006107f260086116c1565b905090565b606060008054610806906137d5565b80601f0160208091040260200160405190810160405280929190818152602001828054610832906137d5565b801561087f5780601f106108545761010080835404028352916020019161087f565b820191906000526020600020905b81548152906001019060200180831161086257829003601f168201915b5050505050905090565b6000610894826116cf565b6108d3576040517f08c379a00000000000000000000000000000000000000000000000000000000081526004016108ca906133e1565b60405180910390fd5b6004600083815260200190815260200160002060009054906101000a900473ffffffffffffffffffffffffffffffffffffffff169050919050565b600061091982610d6c565b90508073ffffffffffffffffffffffffffffffffffffffff168373ffffffffffffffffffffffffffffffffffffffff16141561098a576040517f08c379a000000000000000000000000000000000000000000000000000000000815260040161098190613461565b60405180910390fd5b8073ffffffffffffffffffffffffffffffffffffffff166109a961173b565b73ffffffffffffffffffffffffffffffffffffffff1614806109d857506109d7816109d261173b565b6114cb565b5b610a17576040517f08c379a0000000000000000000000000000000000000000000000000000000008152600401610a0e906132e1565b60405180910390fd5b610a218383611743565b505050565b610a37610a3161173b565b826117fc565b610a76576040517f08c379a0000000000000000000000000000000000000000000000000000000008152600401610a6d90613481565b60405180910390fd5b610a818383836118da565b505050565b610a97610a9161173b565b826117fc565b610ad6576040517f08c379a0000000000000000000000000000000000000000000000000000000008152600401610acd90613301565b60405180910390fd5b600b600082815260200190815260200160002060009054906101000a900460ff16610b36576040517f08c379a0000000000000000000000000000000000000000000000000000000008152600401610b2d906132c1565b60405180910390fd5b6000600b600083815260200190815260200160002060006101000a81548160ff021916908315150217905550600a6000828152602001908152602001600020600090557f8500085ae1d937330595df2345198c1a7aec93a9c514db94bbf313ce77bc337a81604051610ba891906134e1565b60405180910390a150565b6000610bbe826116cf565b9050919050565b610be0838383604051806020016040528060008152506110a9565b505050565b600b6020528060005260406000206000915054906101000a900460ff1681565b60006001600983604051610c199190613102565b908152602001604051809103902060009054906101000a900460ff1660ff161415610c79576040517f08c379a0000000000000000000000000000000000000000000000000000000008152600401610c70906134a1565b60405180910390fd5b66b1a2bc2ec50000341015610cc3576040517f08c379a0000000000000000000000000000000000000000000000000000000008152600401610cba906134c1565b60405180910390fd5b6000610ccf60086116c1565b9050610cdb6008611b36565b6001600984604051610ced9190613102565b908152602001604051809103902060006101000a81548160ff021916908360ff160217905550610d1d8482611b4c565b610d278184611d1a565b7f067fcaf7b6ae85fc37e37de18f921ea186eaaa8dd96a2c58620c70c198cec380818585604051610d5a939291906134fc565b60405180910390a18091505092915050565b6000806002600084815260200190815260200160002060009054906101000a900473ffffffffffffffffffffffffffffffffffffffff169050600073ffffffffffffffffffffffffffffffffffffffff168173ffffffffffffffffffffffffffffffffffffffff161415610de4576000915050610de9565b809150505b919050565b60008073ffffffffffffffffffffffffffffffffffffffff168273ffffffffffffffffffffffffffffffffffffffff161415610e5f576040517f08c379a0000000000000000000000000000000000000000000000000000000008152600401610e5690613321565b60405180910390fd5b600360008373ffffffffffffffffffffffffffffffffffffffff1673ffffffffffffffffffffffffffffffffffffffff168152602001908152602001600020549050919050565b610eae61173b565b73ffffffffffffffffffffffffffffffffffffffff16610ecc610f9c565b73ffffffffffffffffffffffffffffffffffffffff1614610f22576040517f08c379a0000000000000000000000000000000000000000000000000000000008152600401610f1990613401565b60405180910390fd5b610f2c6000611d8e565b565b610f3f610f3961173b565b826117fc565b610f7e576040517f08c379a0000000000000000000000000000000000000000000000000000000008152600401610f7590613301565b60405180910390fd5b610f8781611e54565b50565b6000610f9582610d6c565b9050919050565b6000600760009054906101000a900473ffffffffffffffffffffffffffffffffffffffff16905090565b606060018054610fd5906137d5565b80601f0160208091040260200160405190810160405280929190818152602001828054611001906137d5565b801561104e5780601f106110235761010080835404028352916020019161104e565b820191906000526020600020905b81548152906001019060200180831161103157829003601f168201915b5050505050905090565b6000600160098360405161106c9190613102565b908152602001604051809103902060009054906101000a900460ff1660ff16149050919050565b6110a561109e61173b565b8383611ea3565b5050565b6110ba6110b461173b565b836117fc565b6110f9576040517f08c379a00000000000000000000000000000000000000000000000000000000081526004016110f090613481565b60405180910390fd5b61110584848484612010565b50505050565b60606111168261206c565b9050919050565b61112561173b565b73ffffffffffffffffffffffffffffffffffffffff16611143610f9c565b73ffffffffffffffffffffffffffffffffffffffff1614611199576040517f08c379a000000000000000000000000000000000000000000000000000000000815260040161119090613401565b60405180910390fd5b60006111a560086116c1565b90506111b16008611b36565b6111bb83826121be565b6111c58183611d1a565b60016009836040516111d79190613102565b908152602001604051809103902060006101000a81548160ff021916908360ff160217905550505050565b61121361120d61173b565b836117fc565b611252576040517f08c379a000000000000000000000000000000000000000000000000000000000815260040161124990613301565b60405180910390fd5b60008111611295576040517f08c379a000000000000000000000000000000000000000000000000000000000815260040161128c906131e1565b60405180910390fd5b80600a6000848152602001908152602001600020819055506001600b600084815260200190815260200160002060006101000a81548160ff0219169083151502179055507f3491649a16c326ca305ed14319c0106222d41417a0c19ec2ced6ec98e6158249828260405161130a929190613571565b60405180910390a15050565b600b600082815260200190815260200160002060009054906101000a900460ff16611376576040517f08c379a000000000000000000000000000000000000000000000000000000000815260040161136d90613361565b60405180910390fd5b6000600a6000838152602001908152602001600020549050803410156113d1576040517f08c379a00000000000000000000000000000000000000000000000000000000081526004016113c8906133a1565b60405180910390fd5b60006113dc83610d6c565b90506113e98133856118da565b8073ffffffffffffffffffffffffffffffffffffffff166108fc839081150290604051600060405180830381858888f1935050505015801561142f573d6000803e3d6000fd5b506000600b600085815260200190815260200160002060006101000a81548160ff021916908315150217905550600a6000848152602001908152602001600020600090557f5de13defa3534de0567d51e62e997235f1c1e8ddc82289aeaca94516a358d5398333846040516114a69392919061353a565b60405180910390a1505050565b600a6020528060005260406000206000915090505481565b6000600560008473ffffffffffffffffffffffffffffffffffffffff1673ffffffffffffffffffffffffffffffffffffffff16815260200190815260200160002060008373ffffffffffffffffffffffffffffffffffffffff1673ffffffffffffffffffffffffffffffffffffffff16815260200190815260200160002060009054906101000a900460ff16905092915050565b61156761173b565b73ffffffffffffffffffffffffffffffffffffffff16611585610f9c565b73ffffffffffffffffffffffffffffffffffffffff16146115db576040517f08c379a00000000000000000000000000000000000000000000000000000000081526004016115d290613401565b60405180910390fd5b600073ffffffffffffffffffffffffffffffffffffffff168173ffffffffffffffffffffffffffffffffffffffff16141561164b576040517f08c379a000000000000000000000000000000000000000000000000000000000815260040161164290613221565b60405180910390fd5b61165481611d8e565b50565b60007f01ffc9a7000000000000000000000000000000000000000000000000000000007bffffffffffffffffffffffffffffffffffffffffffffffffffffffff1916827bffffffffffffffffffffffffffffffffffffffffffffffffffffffff1916149050919050565b600081600001549050919050565b60008073ffffffffffffffffffffffffffffffffffffffff166002600084815260200190815260200160002060009054906101000a900473ffffffffffffffffffffffffffffffffffffffff1673ffffffffffffffffffffffffffffffffffffffff1614159050919050565b600033905090565b816004600083815260200190815260200160002060006101000a81548173ffffffffffffffffffffffffffffffffffffffff021916908373ffffffffffffffffffffffffffffffffffffffff160217905550808273ffffffffffffffffffffffffffffffffffffffff166117b683610d6c565b73ffffffffffffffffffffffffffffffffffffffff167f8c5be1e5ebec7d5bd14f71427d1e84f3dd0314c0f7b2291e5b200ac8c7c3b92560405160405180910390a45050565b6000611807826116cf565b611846576040517f08c379a000000000000000000000000000000000000000000000000000000000815260040161183d906132a1565b60405180910390fd5b600061185183610d6c565b90508073ffffffffffffffffffffffffffffffffffffffff168473ffffffffffffffffffffffffffffffffffffffff1614806118c057508373ffffffffffffffffffffffffffffffffffffffff166118a884610889565b73ffffffffffffffffffffffffffffffffffffffff16145b806118d157506118d081856114cb565b5b91505092915050565b8273ffffffffffffffffffffffffffffffffffffffff166118fa82610d6c565b73ffffffffffffffffffffffffffffffffffffffff1614611950576040517f08c379a000000000000000000000000000000000000000000000000000000000815260040161194790613421565b60405180910390fd5b600073ffffffffffffffffffffffffffffffffffffffff168273ffffffffffffffffffffffffffffffffffffffff1614156119c0576040517f08c379a00000000000000000000000000000000000000000000000000000000081526004016119b790613261565b60405180910390fd5b6119cb8383836121dc565b6119d6600082611743565b6001600360008573ffffffffffffffffffffffffffffffffffffffff1673ffffffffffffffffffffffffffffffffffffffff1681526020019081526020016000206000828254611a2691906136eb565b925050819055506001600360008473ffffffffffffffffffffffffffffffffffffffff1673ffffffffffffffffffffffffffffffffffffffff1681526020019081526020016000206000828254611a7d9190613664565b92505081905550816002600083815260200190815260200160002060006101000a81548173ffffffffffffffffffffffffffffffffffffffff021916908373ffffffffffffffffffffffffffffffffffffffff160217905550808273ffffffffffffffffffffffffffffffffffffffff168473ffffffffffffffffffffffffffffffffffffffff167fddf252ad1be2c89b69c2b068fc378daa952ba7f163c4a11628f55a4df523b3ef60405160405180910390a4505050565b6001816000016000828254019250508190555050565b600073ffffffffffffffffffffffffffffffffffffffff168273ffffffffffffffffffffffffffffffffffffffff161415611bbc576040517f08c379a0000000000000000000000000000000000000000000000000000000008152600401611bb390613381565b60405180910390fd5b611bc5816116cf565b15611c05576040517f08c379a0000000000000000000000000000000000000000000000000000000008152600401611bfc90613241565b60405180910390fd5b611c11600083836121dc565b6001600360008473ffffffffffffffffffffffffffffffffffffffff1673ffffffffffffffffffffffffffffffffffffffff1681526020019081526020016000206000828254611c619190613664565b92505081905550816002600083815260200190815260200160002060006101000a81548173ffffffffffffffffffffffffffffffffffffffff021916908373ffffffffffffffffffffffffffffffffffffffff160217905550808273ffffffffffffffffffffffffffffffffffffffff16600073ffffffffffffffffffffffffffffffffffffffff167fddf252ad1be2c89b69c2b068fc378daa952ba7f163c4a11628f55a4df523b3ef60405160405180910390a45050565b611d23826116cf565b611d62576040517f08c379a0000000000000000000000000000000000000000000000000000000008152600401611d5990613341565b60405180910390fd5b80600660008481526020019081526020016000209080519060200190611d899291906127db565b505050565b6000600760009054906101000a900473ffffffffffffffffffffffffffffffffffffffff16905081600760006101000a81548173ffffffffffffffffffffffffffffffffffffffff021916908373ffffffffffffffffffffffffffffffffffffffff1602179055508173ffffffffffffffffffffffffffffffffffffffff168173ffffffffffffffffffffffffffffffffffffffff167f8be0079c531659141344cd1fd0a4f28419497f9722a3daafe3b4186f6b6457e060405160405180910390a35050565b611e5d816121e1565b600a6000828152602001908152602001600020600090556000600b600083815260200190815260200160002060006101000a81548160ff02191690831515021790555050565b8173ffffffffffffffffffffffffffffffffffffffff168373ffffffffffffffffffffffffffffffffffffffff161415611f12576040517f08c379a0000000000000000000000000000000000000000000000000000000008152600401611f0990613281565b60405180910390fd5b80600560008573ffffffffffffffffffffffffffffffffffffffff1673ffffffffffffffffffffffffffffffffffffffff16815260200190815260200160002060008473ffffffffffffffffffffffffffffffffffffffff1673ffffffffffffffffffffffffffffffffffffffff16815260200190815260200160002060006101000a81548160ff0219169083151502179055508173ffffffffffffffffffffffffffffffffffffffff168373ffffffffffffffffffffffffffffffffffffffff167f17307eab39ab6107e8899845ad3d59bd9653f200f220920489ca2b5937696c318360405161200391906131a4565b60405180910390a3505050565b61201b8484846118da565b61202784848484612234565b612066576040517f08c379a000000000000000000000000000000000000000000000000000000000815260040161205d90613201565b60405180910390fd5b50505050565b6060612077826116cf565b6120b6576040517f08c379a00000000000000000000000000000000000000000000000000000000081526004016120ad906133c1565b60405180910390fd5b60006006600084815260200190815260200160002080546120d6906137d5565b80601f0160208091040260200160405190810160405280929190818152602001828054612102906137d5565b801561214f5780601f106121245761010080835404028352916020019161214f565b820191906000526020600020905b81548152906001019060200180831161213257829003601f168201915b5050505050905060006121606123cb565b90506000815114156121765781925050506121b9565b6000825111156121ab578082604051602001612193929190613119565b604051602081830303815290604052925050506121b9565b6121b484612408565b925050505b919050565b6121d88282604051806020016040528060008152506124af565b5050565b505050565b6121ea8161250a565b600060066000838152602001908152602001600020805461220a906137d5565b905014612231576006600082815260200190815260200160002060006122309190612861565b5b50565b60006122558473ffffffffffffffffffffffffffffffffffffffff1661261b565b156123be578373ffffffffffffffffffffffffffffffffffffffff1663150b7a0261227e61173b565b8786866040518563ffffffff1660e01b81526004016122a09493929190613158565b602060405180830381600087803b1580156122ba57600080fd5b505af19250505080156122eb57506040513d601f19601f820116820180604052508101906122e89190612c1b565b60015b61236e573d806000811461231b576040519150601f19603f3d011682016040523d82523d6000602084013e612320565b606091505b50600081511415612366576040517f08c379a000000000000000000000000000000000000000000000000000000000815260040161235d90613201565b60405180910390fd5b805181602001fd5b63150b7a0260e01b7bffffffffffffffffffffffffffffffffffffffffffffffffffffffff1916817bffffffffffffffffffffffffffffffffffffffffffffffffffffffff1916149150506123c3565b600190505b949350505050565b60606040518060400160405280600781526020017f697066733a2f2f00000000000000000000000000000000000000000000000000815250905090565b6060612413826116cf565b612452576040517f08c379a000000000000000000000000000000000000000000000000000000000815260040161244990613441565b60405180910390fd5b600061245c6123cb565b9050600081511161247c57604051806020016040528060008152506124a7565b806124868461262e565b604051602001612497929190613119565b6040516020818303038152906040525b915050919050565b6124b98383611b4c565b6124c66000848484612234565b612505576040517f08c379a00000000000000000000000000000000000000000000000000000000081526004016124fc90613201565b60405180910390fd5b505050565b600061251582610d6c565b9050612523816000846121dc565b61252e600083611743565b6001600360008373ffffffffffffffffffffffffffffffffffffffff1673ffffffffffffffffffffffffffffffffffffffff168152602001908152602001600020600082825461257e91906136eb565b925050819055506002600083815260200190815260200160002060006101000a81549073ffffffffffffffffffffffffffffffffffffffff021916905581600073ffffffffffffffffffffffffffffffffffffffff168273ffffffffffffffffffffffffffffffffffffffff167fddf252ad1be2c89b69c2b068fc378daa952ba7f163c4a11628f55a4df523b3ef60405160405180910390a45050565b600080823b905060008111915050919050565b60606000821415612676576040518060400160405280600181526020017f300000000000000000000000000000000000000000000000000000000000000081525090506127d6565b600082905060005b600082146126a857808061269190613838565b915050600a826126a191906136ba565b915061267e565b60008167ffffffffffffffff8111156126ea577f4e487b7100000000000000000000000000000000000000000000000000000000600052604160045260246000fd5b6040519080825280601f01601f19166020018201604052801561271c5781602001600182028036833780820191505090505b5090505b600085146127cf5760018261273591906136eb565b9150600a856127449190613881565b60306127509190613664565b60f81b81838151811061278c577f4e487b7100000000000000000000000000000000000000000000000000000000600052603260045260246000fd5b60200101907effffffffffffffffffffffffffffffffffffffffffffffffffffffffffffff1916908160001a905350600a856127c891906136ba565b9450612720565b8093505050505b919050565b8280546127e7906137d5565b90600052602060002090601f0160209004810192826128095760008555612850565b82601f1061282257805160ff1916838001178555612850565b82800160010185558215612850579182015b8281111561284f578251825591602001919060010190612834565b5b50905061285d91906128a1565b5090565b50805461286d906137d5565b6000825580601f1061287f575061289e565b601f01602090049060005260206000209081019061289d91906128a1565b5b50565b5b808211156128ba5760008160009055506001016128a2565b5090565b60006128d16128cc846135bf565b61359a565b9050828152602081018484840111156128e957600080fd5b6128f4848285613793565b509392505050565b600061290f61290a846135f0565b61359a565b90508281526020810184848401111561292757600080fd5b612932848285613793565b509392505050565b60008135905061294981613f45565b92915050565b60008135905061295e81613f5c565b92915050565b60008135905061297381613f73565b92915050565b60008151905061298881613f73565b92915050565b600082601f83011261299f57600080fd5b81356129af8482602086016128be565b91505092915050565b600082601f8301126129c957600080fd5b81356129d98482602086016128fc565b91505092915050565b6000813590506129f181613f8a565b92915050565b600060208284031215612a0957600080fd5b6000612a178482850161293a565b91505092915050565b60008060408385031215612a3357600080fd5b6000612a418582860161293a565b9250506020612a528582860161293a565b9150509250929050565b600080600060608486031215612a7157600080fd5b6000612a7f8682870161293a565b9350506020612a908682870161293a565b9250506040612aa1868287016129e2565b9150509250925092565b60008060008060808587031215612ac157600080fd5b6000612acf8782880161293a565b9450506020612ae08782880161293a565b9350506040612af1878288016129e2565b925050606085013567ffffffffffffffff811115612b0e57600080fd5b612b1a8782880161298e565b91505092959194509250565b60008060408385031215612b3957600080fd5b6000612b478582860161293a565b9250506020612b588582860161294f565b9150509250929050565b60008060408385031215612b7557600080fd5b6000612b838582860161293a565b925050602083013567ffffffffffffffff811115612ba057600080fd5b612bac858286016129b8565b9150509250929050565b60008060408385031215612bc957600080fd5b6000612bd78582860161293a565b9250506020612be8858286016129e2565b9150509250929050565b600060208284031215612c0457600080fd5b6000612c1284828501612964565b91505092915050565b600060208284031215612c2d57600080fd5b6000612c3b84828501612979565b91505092915050565b600060208284031215612c5657600080fd5b600082013567ffffffffffffffff811115612c7057600080fd5b612c7c848285016129b8565b91505092915050565b600060208284031215612c9757600080fd5b6000612ca5848285016129e2565b91505092915050565b60008060408385031215612cc157600080fd5b6000612ccf858286016129e2565b9250506020612ce0858286016129e2565b9150509250929050565b612cf38161371f565b82525050565b612d0281613731565b82525050565b6000612d1382613621565b612d1d8185613637565b9350612d2d8185602086016137a2565b612d368161396e565b840191505092915050565b6000612d4c8261362c565b612d568185613648565b9350612d668185602086016137a2565b612d6f8161396e565b840191505092915050565b6000612d858261362c565b612d8f8185613659565b9350612d9f8185602086016137a2565b80840191505092915050565b6000612db8601f83613648565b9150612dc38261397f565b602082019050919050565b6000612ddb603283613648565b9150612de6826139a8565b604082019050919050565b6000612dfe602683613648565b9150612e09826139f7565b604082019050919050565b6000612e21601c83613648565b9150612e2c82613a46565b602082019050919050565b6000612e44602483613648565b9150612e4f82613a6f565b604082019050919050565b6000612e67601983613648565b9150612e7282613abe565b602082019050919050565b6000612e8a602c83613648565b9150612e9582613ae7565b604082019050919050565b6000612ead601c83613648565b9150612eb882613b36565b602082019050919050565b6000612ed0603883613648565b9150612edb82613b5f565b604082019050919050565b6000612ef3600d83613648565b9150612efe82613bae565b602082019050919050565b6000612f16602a83613648565b9150612f2182613bd7565b604082019050919050565b6000612f39602e83613648565b9150612f4482613c26565b604082019050919050565b6000612f5c601283613648565b9150612f6782613c75565b602082019050919050565b6000612f7f602083613648565b9150612f8a82613c9e565b602082019050919050565b6000612fa2601483613648565b9150612fad82613cc7565b602082019050919050565b6000612fc5603183613648565b9150612fd082613cf0565b604082019050919050565b6000612fe8602c83613648565b9150612ff382613d3f565b604082019050919050565b600061300b602083613648565b915061301682613d8e565b602082019050919050565b600061302e602983613648565b915061303982613db7565b604082019050919050565b6000613051602f83613648565b915061305c82613e06565b604082019050919050565b6000613074602183613648565b915061307f82613e55565b604082019050919050565b6000613097603183613648565b91506130a282613ea4565b604082019050919050565b60006130ba601383613648565b91506130c582613ef3565b602082019050919050565b60006130dd600f83613648565b91506130e882613f1c565b602082019050919050565b6130fc81613789565b82525050565b600061310e8284612d7a565b915081905092915050565b60006131258285612d7a565b91506131318284612d7a565b91508190509392505050565b60006020820190506131526000830184612cea565b92915050565b600060808201905061316d6000830187612cea565b61317a6020830186612cea565b61318760408301856130f3565b81810360608301526131998184612d08565b905095945050505050565b60006020820190506131b96000830184612cf9565b92915050565b600060208201905081810360008301526131d98184612d41565b905092915050565b600060208201905081810360008301526131fa81612dab565b9050919050565b6000602082019050818103600083015261321a81612dce565b9050919050565b6000602082019050818103600083015261323a81612df1565b9050919050565b6000602082019050818103600083015261325a81612e14565b9050919050565b6000602082019050818103600083015261327a81612e37565b9050919050565b6000602082019050818103600083015261329a81612e5a565b9050919050565b600060208201905081810360008301526132ba81612e7d565b9050919050565b600060208201905081810360008301526132da81612ea0565b9050919050565b600060208201905081810360008301526132fa81612ec3565b9050919050565b6000602082019050818103600083015261331a81612ee6565b9050919050565b6000602082019050818103600083015261333a81612f09565b9050919050565b6000602082019050818103600083015261335a81612f2c565b9050919050565b6000602082019050818103600083015261337a81612f4f565b9050919050565b6000602082019050818103600083015261339a81612f72565b9050919050565b600060208201905081810360008301526133ba81612f95565b9050919050565b600060208201905081810360008301526133da81612fb8565b9050919050565b600060208201905081810360008301526133fa81612fdb565b9050919050565b6000602082019050818103600083015261341a81612ffe565b9050919050565b6000602082019050818103600083015261343a81613021565b9050919050565b6000602082019050818103600083015261345a81613044565b9050919050565b6000602082019050818103600083015261347a81613067565b9050919050565b6000602082019050818103600083015261349a8161308a565b9050919050565b600060208201905081810360008301526134ba816130ad565b9050919050565b600060208201905081810360008301526134da816130d0565b9050919050565b60006020820190506134f660008301846130f3565b92915050565b600060608201905061351160008301866130f3565b61351e6020830185612cea565b81810360408301526135308184612d41565b9050949350505050565b600060608201905061354f60008301866130f3565b61355c6020830185612cea565b61356960408301846130f3565b949350505050565b600060408201905061358660008301856130f3565b61359360208301846130f3565b9392505050565b60006135a46135b5565b90506135b08282613807565b919050565b6000604051905090565b600067ffffffffffffffff8211156135da576135d961393f565b5b6135e38261396e565b9050602081019050919050565b600067ffffffffffffffff82111561360b5761360a61393f565b5b6136148261396e565b9050602081019050919050565b600081519050919050565b600081519050919050565b600082825260208201905092915050565b600082825260208201905092915050565b600081905092915050565b600061366f82613789565b915061367a83613789565b9250827fffffffffffffffffffffffffffffffffffffffffffffffffffffffffffffffff038211156136af576136ae6138b2565b5b828201905092915050565b60006136c582613789565b91506136d083613789565b9250826136e0576136df6138e1565b5b828204905092915050565b60006136f682613789565b915061370183613789565b925082821015613714576137136138b2565b5b828203905092915050565b600061372a82613769565b9050919050565b60008115159050919050565b60007fffffffff0000000000000000000000000000000000000000000000000000000082169050919050565b600073ffffffffffffffffffffffffffffffffffffffff82169050919050565b6000819050919050565b82818337600083830152505050565b60005b838110156137c05780820151818401526020810190506137a5565b838111156137cf576000848401525b50505050565b600060028204905060018216806137ed57607f821691505b6020821081141561380157613800613910565b5b50919050565b6138108261396e565b810181811067ffffffffffffffff8211171561382f5761382e61393f565b5b80604052505050565b600061384382613789565b91507fffffffffffffffffffffffffffffffffffffffffffffffffffffffffffffffff821415613876576138756138b2565b5b600182019050919050565b600061388c82613789565b915061389783613789565b9250826138a7576138a66138e1565b5b828206905092915050565b7f4e487b7100000000000000000000000000000000000000000000000000000000600052601160045260246000fd5b7f4e487b7100000000000000000000000000000000000000000000000000000000600052601260045260246000fd5b7f4e487b7100000000000000000000000000000000000000000000000000000000600052602260045260246000fd5b7f4e487b7100000000000000000000000000000000000000000000000000000000600052604160045260246000fd5b6000601f19601f8301169050919050565b7f5072696365206d7573742062652067726561746572207468616e207a65726f00600082015250565b7f4552433732313a207472616e7366657220746f206e6f6e20455243373231526560008201527f63656976657220696d706c656d656e7465720000000000000000000000000000602082015250565b7f4f776e61626c653a206e6577206f776e657220697320746865207a65726f206160008201527f6464726573730000000000000000000000000000000000000000000000000000602082015250565b7f4552433732313a20746f6b656e20616c7265616479206d696e74656400000000600082015250565b7f4552433732313a207472616e7366657220746f20746865207a65726f2061646460008201527f7265737300000000000000000000000000000000000000000000000000000000602082015250565b7f4552433732313a20617070726f766520746f2063616c6c657200000000000000600082015250565b7f4552433732313a206f70657261746f7220717565727920666f72206e6f6e657860008201527f697374656e7420746f6b656e0000000000000000000000000000000000000000602082015250565b7f546f6b656e206973206e6f74206c697374656420666f722073616c6500000000600082015250565b7f4552433732313a20617070726f76652063616c6c6572206973206e6f74206f7760008201527f6e6572206e6f7220617070726f76656420666f7220616c6c0000000000000000602082015250565b7f4e6f7420746865206f776e657200000000000000000000000000000000000000600082015250565b7f4552433732313a2062616c616e636520717565727920666f7220746865207a6560008201527f726f206164647265737300000000000000000000000000000000000000000000602082015250565b7f45524337323155524953746f726167653a2055524920736574206f66206e6f6e60008201527f6578697374656e7420746f6b656e000000000000000000000000000000000000602082015250565b7f546f6b656e206e6f7420666f722073616c650000000000000000000000000000600082015250565b7f4552433732313a206d696e7420746f20746865207a65726f2061646472657373600082015250565b7f496e73756666696369656e74207061796d656e74000000000000000000000000600082015250565b7f45524337323155524953746f726167653a2055524920717565727920666f722060008201527f6e6f6e6578697374656e7420746f6b656e000000000000000000000000000000602082015250565b7f4552433732313a20617070726f76656420717565727920666f72206e6f6e657860008201527f697374656e7420746f6b656e0000000000000000000000000000000000000000602082015250565b7f4f776e61626c653a2063616c6c6572206973206e6f7420746865206f776e6572600082015250565b7f4552433732313a207472616e73666572206f6620746f6b656e2074686174206960008201527f73206e6f74206f776e0000000000000000000000000000000000000000000000602082015250565b7f4552433732314d657461646174613a2055524920717565727920666f72206e6f60008201527f6e6578697374656e7420746f6b656e0000000000000000000000000000000000602082015250565b7f4552433732313a20617070726f76616c20746f2063757272656e74206f776e6560008201527f7200000000000000000000000000000000000000000000000000000000000000602082015250565b7f4552433732313a207472616e736665722063616c6c6572206973206e6f74206f60008201527f776e6572206e6f7220617070726f766564000000000000000000000000000000602082015250565b7f4e465420616c7265616479206d696e7465642100000000000000000000000000600082015250565b7f4e65656420746f20706179207570210000000000000000000000000000000000600082015250565b613f4e8161371f565b8114613f5957600080fd5b50565b613f6581613731565b8114613f7057600080fd5b50565b613f7c8161373d565b8114613f8757600080fd5b50565b613f9381613789565b8114613f9e57600080fd5b5056fea264697066735822122069e044af21e6b5b9f5cba074342228e255566a6bf4c0f984df07e39571bbbd7a64736f6c63430008040033",
  "linkReferences": {},
  "deployedLinkReferences": {}
}